:100AD3007F02120AFA7F38120AFA7F0E120AFA7F8D
:040AE30001020AFA08
:100AFA008F80C2B4C2B5D2B67F027E001209D2C2BA
:020B0A00B62211
:100B0C008F80D2B4C2B5D2B67F027E001209D2C297
:020B1C00B622FF
:100A57008B328A338934AB32AA33A93412028DFF21
:100A67006010120B0C74012534F534E43533F5337B
:030A770080E422F6
:100818007598504389201202B4084300001C200830
:100828004800002580084A00003840084F00007042
:100838008008540000E10000000848758DFC80170E
:100848008012758DFE8010758DFF800B758DFF757C
:0A08580087808003758DFDD28E228B
:080B48008F993099FDC299223A
:100ABD0012028D6010F5993099FDC299740129F9D2
:060ACD00E43AFA80EB227E
:0A0B2B00EE3395E0C364809480224D
:070B5000D2A1D2A0C2A02235
:090B3F00C2A1C2A0D2A1D2A022E1
:100A7A007E07120B2B401AC2A1A806EF088002C3F8
:100A8A0013D8FC30E003D38001C392A0D2A11E8008
:010A9A00E17A
:010A9B002238
:100A9C00E4FF7E07120B2B4017D2A130A00DA80645
:100AAC007401088002C333D8FC4207C2A11E80E443
:010ABC002217
:100AE700C2A1D2A0D2A100000000C2A120A002C3CF
:030AF70022D322E5
:070B5700C2A1D2A0D2A1222D
:04093C008F328D3336
:10094000120B50AF32120A7A120AE7AF33120A7A48
:10095000120AE7120B50E5324401FF120A7A120A1A
:0E096000E7120A9C8F34120B57120B3FAF3474
:01096E002266
:10096F008F328D338B34120B507FA0120A7A120AFA
:10097F00E7AF32120A7A120AE7AF33120A7A120A73
:10098F00E7AF34120A7A120AE7120B3F7F0A7E0092
:03099F000209D278
:04089C008F2F8D30DD
:1008A000120B507FA0120A7A120AE7AF2F120A7AAF
:1008B000120AE7AF30120A7A120AE7120B507FA130
:1008C000120A7A120AE7120A9C8F31120B57120B86
:0308D0003FAF3106
:0108D3002202
:1009A200D2A1D2A0120B507F90120A7A120AE77FCC
:1009B200AC120A7A120AE7120B3F120B507F901206
:1009C2000A7A120AE77FEE120A7A120AE7020B3F4C
:1008D400120B507F90120A7A120AE77FAA120A7A40
:1008E400120AE7120B507F91120A7A120AE7120ACF
:1008F4009C8F32120AE7120A9C8F33120B57120B89
:030904003FAF32D0
:0109070022CD
:0D0B1E00C290D291D290C290D291D290227A
:10077200E4FDFCC293120B1EC290C291D290C290B1
:10078200A2009291D290C290A2019291D290120BA9
:100792001E7B0BEB3395E0C364809480401FC290B4
:1007A2003092157E007401A803088005C333CE334E
:1007B200CED8F94205EE4204D2901B80D6D293AE37
:0307C20004AF057C
:0107C5002211
:100A300054656D702E20202020203A3000496E74BD
:100A4000656E73697479203A3000566F6C74616713
:070A5000652020203A300070
:070B5E00EF75F00A02026BC3
:1009D200D3EF9400EE940040257DFAEDD394007499
:1009E20080948040031D80F37DF7EDD394007480E2
:0E09F200948040031D80F3EF1F70D51E80D24D
:010A000022D3
:100719007F80120AFAE51912075FE5191207697F46
:100729003A120B0CE51A12075FE51A1207697F3AAC
:10073900120B0CE51BC4540F2430FF120B0CE51BE4
:10074900540F2430FF120B0C7F20120B0C7B007A04
:10075900007909020A57C4540F2430FF120B0C22E6
:09076900540F2430FF120B0C2286
:100A01007F0C120AFA7FC0120AFA7BFF7A0A793048
:100A1100120A577F90120AFA7BFF7A0A793D120A6D
:0F0A2100577FD0120AFA7BFF7A0A794A020A57E6
:100862001208D4EF30E7096307FF0F750D2D8003DF
:10087200750D2BEF75F06412026B2430F50E120B1E
:100882005EFE120B5FAEF0EE2430F50F120B5EAF80
:09089200F0EF2430F5107511435C
:01089B00223A
:1009080049442020202044415445202020202020F4
:100918002054494D45202020202020204C4452209E
:1009280020504F5420202054454D500D00202000C9
:04093800202020005B
:030003000207C62B
:1007C600C0E0C0F0C083C082C0D075D000C000C0F9
:1007D60001C002C003C004C005C006C007752E01D3
:1007E600751300752A007BFF7A097908120ABD1273
:1007F60002EE7F0D120B48D007D006D005D004D0EC
:1008060003D002D001D000D0D0D082D083D0F0D097
:02081600E032CE
:070B6500D2AFD2A8D2882212
:1002EE00E4F513E52EC39508400302043AE52E7596
:1002FE00F00A8470047F208009E52E75F00A8424AC
:10030E0030FF120B48E52E12044F1204ABAD13E46E
:10031E00FF12089C8F21E513041204658F22E5134A
:10032E0024021204658F23E513240312046C8F2418
:10033E00E513240412046C8F25E513240512048999
:10034E008F26E51324061204898F27E5132407123E
:10035E00049B8F28E513240812049B8F29E5132490
:10036E00091204B58F2BE513240A1204B58F2CE560
:10037E0013240BFDE4FF12089C8F2DE52B12043B7A
:10038E00E52B12045C7F2F120B48E52C12043BE583
:10039E002C12045C7F2F120B487F32120B487F30D9
:1003AE00120473E521120445E5211204807F3A12EE
:1003BE000B48E522120445E5221204807F3A120B07
:1003CE0048E52DC41204A2E52D1204A27F20120BC3
:1003DE0048AF23120B487F4D120B487BFF7A0979E9
:1003EE0038120ABDE524120490E52412044F7F252D
:1003FE00120473E525120490E52575F00A84E5F0E4
:10040E002430FF120B487F56120B481204AB7B00B0
:10041E007A007926120ABD7F43120B487F0D120B0C
:10042E0048052E740C2513F5130202F122C4540F45
:10043E002430FF120B4822C4540F2430FF120B48F5
:10044E002275F00A84E5F02430FF120B4822540F77
:10045E002430FF120B4822FDE4FF12089C22FDE41B
:10046E00FF12089C22120B487BFF7A097935120A7B
:10047E00BD22540F2430FF120B4822FDE4FF120858
:10048E009C2275F00A842430FF120B4822FDE4FFF3
:10049E0012089C22540F2430FF120B48227BFF7A45
:0E04AE00097935120ABD22FDE4FF12089C22D6
:050B6C000309414D00EA
:0A0B3500D3E508940B74809480222D
:1004BC007508017F807E257D007C00120818120AC9
:1004CC00D31209A2120B65120A01E4F5127D027F08
:1004DC00D012093C8F197D017FD012093C8F1AE490
:1004EC00FD7FD012093C8F1B7D047FD012093C8FFD
:1004FC00147D057FD012093C8F15AF197E00EF6477
:10050C001270028031C3EF9413EE64809480402902
:10051C0074EE2519F519C3940A74809480400674FE
:10052C00FA2519F519C3E519940A748094804006CC
:10053C0074062519F5197509501207191208627FEE
:10054C00CB120AFA7B007A00790D120A57C200C24C
:10055C00011205C779C878421200061201EA8F0C05
:10056C007F9B120AFAE50C1205F2E50C1205E57FE9
:10057C0025120B0CC200D2011205C779C6784212A3
:10058C0000061201EA8F167FDB120AFAE516120535
:10059C00F2E5161205E57F56120B0CE51B700B12DB
:1005AC000B3550061205FD0204D9120B355003020F
:1005BC0004D9750801E4F5130204D91207728E17D9
:1005CC008F18AC17AD18E41201B17B007AF0797F6B
:1005DC00784512010FE4FBFA2275F00A84E5F02449
:1005EC0030FF120B0C2275F00A842430FF120B0C16
:0105FC0022DC
:1005FD00AB19AD13E4FF12096FE51304AB1A120624
:10060D00602402AB091206602403AB0C12066924A8
:10061D0004AB161206692405AB0D1206722406AB47
:10062D000E1206722407AB0F12067B2408AB1012B4
:10063D00067B2409AB14120684240AAB151206841A
:10064D00240BFDAB1BE4FF12096F740C2513F5137E
:10065D00050822FDE4FF12096FE51322FDE4FF12E8
:10066D00096FE51322FDE4FF12096FE51322FDE486
:10067D00FF12096FE51322FDE4FF12096FE5132246
:10000600EC4D6011E8497017ED33EC3304600DE4F4
:10001600FCFFFEFD22E933E8330470F802025612B3
:10002600022158046009E4CC2481500628500902B4
:10003600026028400302025DC0E0EB4A7044B980CA
:1000460006D0E0FB02024CEF4E701CBD8008EBFFB1
:10005600EAFEE9FD80EBE98DF0A4FEE5F00200EF93
:10006600E9CDF9EAFEEBFFEF89F0A4FCE5F0CE89D5
:10007600F0A42EFFE435F0CD89F0A42DFEE435F092
:100086008067EF4E7005BD80D780C3EF8BF0A4ACC0
:10009600F0EE8BF0A42CFCE435F0F8EF8AF0A42CFB
:1000A600E5F038FCE433CB8DF0A42CFCE5F03BF80E
:1000B600EE8AF0A42CFCE5F038F8E433CF89F0A4FE
:1000C6002CFCE5F038CF3400CE89F0A42FFFE5F004
:1000D6003EFEE433C98DF0A42EFEE5F039CD8AF05C
:1000E600A42FFFE5F03EFEE43DFD33D0E0FB5007D4
:1000F6000BBB000F020260EC2CFCEF33FFEE33FE6D
:06010600ED33FD0202389A
:10010C00020260EC5D046005E859047003020256BB
:10011C00120221580460F6EC4860F2EC7004FDFE0B
:10012C00FF22C860DB2481C85009C39860025006C6
:10013C0002025D9850CAF582E9294B4A7005AB82E0
:10014C0002024C75F0007C1A7880C3EF9BEE9AED9E
:10015C0099400DC3EF9BFFEE9AFEED99FDE842F03E
:10016C00DC23ACF0D0E0FFD0E0FED0E0FDAB822091
:10017C00E7101BEB60BAEC2CFCEF33FFEE33FEED1B
:10018C0033FD020238E803F830E705C0F075F000E3
:10019C00EF2FFFEE33FEED33FD40B830E7C280AAFF
:1001AC0075F020800E75F010800575F0087D007ECE
:1001BC00007F003392D530D5031202A6EC334010E9
:1001CC00EF33FFEE33FEED33FDEC33FCD5F0ED22D7
:0E01DC00E5F0247EA2D513CC92E7CDCEFF2213
:1001EA00EDD2E7CD33EC3392D524814006E4FFFE0D
:1001FA00FDFC22FCE4CFCECDCC24E0501174FF806C
:10020A00EDC3CC13CCCD13CDCE13CECF13CF047008
:07021A00F030D5DE0202A660
:10022100E9D2E7C933E833F892D5EDD2E7CD33EC23
:0702310033FC5002B2D5229C
:10023800EC30E7100FBF000C0EBE00080DBD000427
:100248000BEB6014A2D5EB13FCED92E7FD2274FFD3
:10025800FCFDFEFF22E480F8A2D574FF13FC7D802C
:03026800E480EF40
:0300000002068D68
:0C068D00787FE4F6D8FD7581340206D4B5
:10026B00C2D530F707B2D563F0FF05F030E70CB21B
:10027B00D5F4048463F0FF05F080018430D502F4DB
:02028B0004224B
:10028D00BB010689828A83E0225002E722BBFE026F
:09029D00E32289828A83E49322A2
:0E02A600C3E49FFFE49EFEE49DFDE49CFC2269
:1002B400D083D082E4937012740193700DA3A3933E
:1002C400F8740193F5828883E4737402936C70125A
:1002D4007403936D700C7404936E70067405936FBD
:0A02E40060DDA3A3A3A3A3A380CAB7
:100699000204BCE493A3F8E493A34003F68001F2B7
:1006A90008DFF48029E493A3F85407240CC8C33362
:1006B900C4540F4420C8834004F456800146F6DF31
:1006C900E4800B0102040810204080900B6CE47E4A
:1006D900019360BCA3FF543F30E509541FFEE49326
:1006E900A360010ECF54C025E060A840B8E493A3ED
:1006F900FAE493A3F8E493A3C8C582C8CAC583CA18
:10070900F0A3C8C582C8CAC583CADFE9DEE780BECF
:010B71000083
:00000001FF
